:020000040000FA
:67000000FFFF62FF3F00FFFFFFFFFFFFFFFFFFFFFFFFFFFFFFFFFFFFFFFFFFFFFFFFFFFFFFFFFFFFFFFFFFFFFFFFFFFFFFFFFFFFFFFFFFFFFFFFFFFFFFFFFFFFFFFFFFFFFFFFFFFFFFFFFFFFFFFFFFFFFFFFFFFFFFFFFFFFFFFFFFFFFFFFFFFFFFFFFFFFFFFFFFFFFFFFFF5C
:67006700000C8001300006C00018000360000C8001300006C00018000360000C8001300006C00018000360000C8001000000000000000000000000000000000C8001300006C00018000360000C8001300006401618000360000C802C900506C00018000360000C8001E8FD19
:6700CE00001240024800092001248004900012400248000920012480049000124002480009200124800490001240020000000000000000000000000000000012400248000920012480049000124002480009A0022480049000124005A800092001248004900012400260FDEE
:670135000000000000000000000000000000000000000000000000000000000000000000000000000000000000000000000000000000000000000000000000000000000000000000000000000000000000000000000000000000000000000000000000000000000000E0F98A
:67019C000000000000000000000000000000000000000000000000000000000000000000000000000000000000000000000000000000000000000000000000000000000000000000000000000000000000000000000000000000000000000000000000000000000000E0F923
:670203000000000000000000000000000000000000000000000000000000000000000000000000000000000000000000000000000000000000000000000000000000000000000000000000000000000000000000000000000000000000000000000000000000000000E0F9BB
:67026A000000000000000000000000000000000000000000000000000000000000000000000000000000000000000000000000000000000040000000000000000000000000000000000000000000000000000000000000000000000000000000000000000000000000E0FD10
:6702D1000000000000000000000000000000000000000000000000000000000000000000000000000000000000000000000000000000000000000000000000000000000000000000000000000000000000000000000000000000000000000000000000000000000000E0F9ED
:670338000000000000000000000000000000000000000000000000000000000000000000000000000000000000000000000000000000000000000000000000000000000000000000000000000000000000000000000000000000000000000000000000000000000000E0F985
:67039F000000000000000000000000000000000000000000000000000000000000000000000000000000000000000000000000000000000000000000000000000000000000000000000000000000000000000000000000000000000000000000000000000000000000E0F91E
:670406000000000000000000000000000000000000000000000000000000000000000000000000000000000000000000000000000000000000000000000000000000000000000000000000000000000000000000000000000000000000000000000000000000000000E0F9B6
:67046D000000000000000000000000000000000000000000000000000000000000000000000000000000000000000000000000000000000000000000000000000000000000000000000000000000000000000000000000000000000000000000000000000000000000E0F94F
:6704D4000000000000000000000000000000000000000000000000000000000000000000000000000000000000000000000000000000000000000000000000000000000000000000000000000000000000000000000000000000000000000000000000000000000000E0F9E8
:67053B000000000000000000000000000000000000000000000000000000000000000000000000000000000000000000000000000000000000000000000000000000000000000000000000000000000000000000000000000000000000000000000000000000000000E0F980
:6705A2000000000000000000000000000000000000000000000000000000000000000000000000000000000000000000000000000000000000000000000000000000000000000000000000000000000000000000000000000000000000000000000000000000000000E0F919
:670609000000000000000000000000000000000000000000000000000000000000000000000000000000000000000000000000000000000000000000000000000000000000000000000000000000000000000000000000000000000000000000000000000000000000E0F9B1
:670670000000000000000000000000000000000000000000000000000000000000000000000000000000000000000000000000000000000000000000000000000000000000000000000000000000000000000000000000000000000000000000000000000000000000E0F94A
:6706D7000000000000000000000000000000000000000000000000000000000000000000000000000000000000000000000000000000000000000000000000000000000000000000000000000000000000000000000000000000000000000000000000000000000000E0F9E3
:67073E0008000000000000000000000000000000000000000000000000000000000000000000000000000000000000000000000000000000000000000000000000000000000000000000000000000000000000000000000000000000000000000000000000000000004AFB07
:6707A5000000000000000000000000000000000000000000000000000000000000000000000000000000000000000000000000000000000000000000000000000000000000000000000000000000000000000000000000000000000000000000000000000000000000E0F914
:67080C000000000000000000000000000000000000000000000000000000000000000000000000000000000000000000000000000000000000000000000000000000000000000000000000000000000000000000000000000000000000000000000000000000000000E0F9AC
:670873000400000000000000000000000000000000000000000000000000000000000000000000000000000000000000000000000000000000000000000000000000000000000000000000000000000000000000000000000000000000000000000000000000000000F1FC2D
:6708DA000000000000000000000000000000000000000000000000000000000000000000000000000000000000000000000000000000000000000000000000000000000000000000000000000000000000000000000000000000000000000000000000000000000000E0F9DE
:670941000000000000000000000000000000000000000000000000000000000000000000000000000000000000000000000000000000000000000000000000000000000000000000000000000000000000000000000000000000000000000000000000000000000000E0F976
:6709A8000000000000000000000000000000000000000000000000000000000000000000000000000000000000000000000000000000000000000000000000000000000000000000000000000000000000000000000000000000000000000000000000000000000000E0F90F
:670A0F000000000000000000000000000000000000000000000000000000000000000000000000000000000000000000000000000000000000000000000000000000000000000000000000000000000000000000000000000000000000000000000000000000000000E0F9A7
:670A760008000000000000000000000000000000000000000000000000000000000000000000000000000000000000000000000000000000000000000000000000000000000000000000000000000000000000000000000000000000000000000000000000000000004AFBCC
:670ADD000000000000000000000000000000000000000000000000000000000000000000000000000000000000000000000000000000000000000000000000000000000000000000000000000000000000000000000000000000000000000000000000000000000000E0F9D9
:670B44000000000000000000000000000000000000000000000000000000000000000000000000000000000000000000000000000000000000000000000000000000000000000000000000000000000000000000000000000000000000000000000000000000000000E0F971
:670BAB000400000000000000000000000000000000000000000000000000000000000000000000000000000000000000000000000000000000000000000000000000000000000000000000000000000000000000000000000000000000000000000000000000000000F1FCF2
:670C12000000000000000000000000000000000000000000000000000000000000000000000000000000000000000000000000000000000000000000000000000000000000000000000000000000000000000000000000000000000000000000000000000000000000E0F9A2
:670C79000000000000000000000000000000000000000000000000000000000000000000000000000000000000000000000000000000000000000000000000000000000000000000000000000000000000000000000000000000000000000000000000000000000000E0F93B
:670CE0000000000000000000000000000000000000000000000000000000000000000000000000000000000000000000000000000000000000000000000000000000000000000000000000000000000000000000000000000000000000000000000000000000000000E0F9D4
:670D47000000000000000000000000000000000000000000000000000000000000000000000000000000000000000000000000000000000000000000000000000000000000000000000000000000000000000000000000000000000000000000000000000000000000E0F96C
:670DAE0008000000000000000000000000000000000000000000000000000000000000000000000000000000000000000000000000000000000000000000000000000000000000000000000000000000000000000000000000000000000000000000000000000000004AFB91
:670E15000000000000000000000000000000000000000000000000000000000000000000000000000000000000000000000000000000000000000000000000000000000000000000000000000000000000000000000000000000000000000000000000000000000000E0F99D
:670E7C000000000000000000000000000000000000000000000000000000000000000000000000000000000000000000000000000000000000000000000000000000000000000000000000000000000000000000000000000000000000000000000000000000000000E0F936
:670EE3000400000000000000000000000000000000000000000000000000000000000000000000000000000000000000000000000000000000000000000000000000000000000000000000000000000000000000000000000000000000000000000000000000000000F1FCB7
:670F4A000000000000000000000000000000000000000000000000000000000000000000000000000000000000000000000000000000000000000000000000000000000000000000000000000000000000000000000000000000000000000000000000000000000000E0F967
:670FB1000000000000000000000000000000000000000000000000000000000000000000000000000000000000000000000000000000000000000000000000000000000000000000000000000000000000000000000000000000000000100000000000000000000000F0F9E0
:671018000000000000000000000000000000000000000000000000000000000000000000000000000000000000000000000000000000000000000000000000000000000000000000000000000000000000000000000000000000000000000000000000000000000000E0F998
:67107F000000000000000000000000000000000000000000000000000000000000000000000000000000000000000000000000000000000000000000000000000000000000000000000000000000000000000000000000000000000000F0000000000000000000000010F911
:6710E6000800000000000000000000000000000000000000000000000000000000000000000000000000000000000000000000000000000000000000000000000000000000000000000000000000000000000000000000000000000000D000000000000000000000009AFB36
:67114D000000000000000000000000000000000000000000000000000000000000000000000000000000000000000000000000000000000000000000000000000000000000000000000000000000000000000000000000000000000000002200000000000000000000C0F960
:6711B4000000000000000000000000000000000000000000000000000000000000000000000000000000000000000000000000000000000000000000000000000000000000000000000000000000000000000000000000000000000000300000000000000000000000D0F9DB
:67121B000400000000000000000000000000000000000000000000000000000000000000000000000000000000000000000000000000000000000000000000000000000000000000000000000000000000000000000000000000000000002000000000000000000000D1FE79
:671282000000000000000000000000000000000000000000000000000000000000000000000000000000000000000000000000000000000000000000000000000000000000000000000000000000000000000000000000000000000000100000000000000000000000F0F90C
:6712E9000000000000000000000000000000000000000000000000000000000000000000000000000000000000000000000000000000000000000000000000000000000000000000000000000000000000000000000000000000000000100000000000000000000000F0F9A5
:671350000000000000000000000000000000000000000000000000000000000000000000000000000000000000000000000000000000000000000000000000000000000000000000000000000000000000000000000000000000000000000000000000000000000000E0F95D
:6713B7000000000000000000000000000000000000000000000000000000000000000000000000000000000000000000000000000000000000000000000000000000000000000000000000000000000000000000000000000000000000300000000000000000000000D0F9D6
:67141E00080000000000000000000000000000000000000000000000000000000000000000000000000000000000000000000000000000000000000000000000000000000000000000000000000000000000000000000000000000000010000000000000000000000069F8EE
:671485000000000000000000000000000000000000000000000000000000000000000000000000000000000000000000000000000000000000000000000000000000000000000000000000000000000000000000000000000000000000C02800000000000000000000BBF865
:6714EC000000000000000000000000000000000000000000000000000000000000000000000000000000000000000000000000000000000000000000000000000000000000000000000000000000000000000000000000000000000000F0000000000000000000000010F9A0
:671553000400000000000000000000000000000000000000000000000000000000000000000000000000000000000000000000000000000000000000000000000000000000000000000000000000000000000000000000000000000000C0000000000000000000000002FF6C
:6715BA000000000000000000000000000000000000000000000000000000000000000000000000000000000000000000000000000000000000000000000000000000000000000000000000000000000000000000000000000000000000C0000000000000000000000020F9F1
:671621000000000000000000000000000000000000000000000000000000000000000000000000000000000000000000000000000000000000000000000000000000000000000000000000000000000000000000000000000000000000500200000000000000000000B0FB65
:67168800000000000000000000000000000000000000000000000000000000000000000000000000000000000000000000000000000000000000000000000000000000000000000000000000000000000000000000000000000000000080000100000000000000000070F911
:6716EF00000000000000000000000000000000000000000000000000000000000000000000000000000000000000000000000000000000000000000000000000000000000000000000000000000000000000000000000000000000000070000000000000000000000090F99B
:671756000800000000000000000000000000000000000000000000000000000000000000000000000000000000000000000000000000000000000000000000000000000000000000000000000000000000000000000000000000000000900000000000000000000000DAFBBF
:6717BD000000000000000000000000000000000000000000000000000000000000000000000000000000000000000000000000000000000000000000000000000000000000000000000000000000000000000000000000000000000000400000000000000000000000A0F9EC
:671824000000000000000000000000000000000000000000000000000000000000000000000000000000000000000000000000000000000000000000000000000000000000000000000000000000000000000000000000000000000000B0000000000000000000000050F964
:67188B000400000000000000000000000000000000000000000000000000000000000000000000000000000000000000000000000000000000000000000000000000000000000000000000000000000000000000000000000000000000400000000000000000000000B1FC05
:6718F200000000000000000000000000000000000000000000000000000000000000000000000000000000000000000000000000000000000000000000000000000000000000000000000000000000000000000000000000000000000080000000000000000000000060F9B6
:671959000000000000000000000000000000000000000000000000000000000000000000000000000000000000000000000000000000000000000000000000000000000000000000000000000000000000000000000000000000000000D0000000000000000000000030F92E
:6719C0000000000000000000000000000000000000000000000000000000000000000000000000000000000000000000000000000000000000000000000000000000000000000000000000000000000000000000000000000000000000C0000000000000000000000020F9E7
:671A27000000000000000000000000000000000000000000000000000000000000000000000000000000000000000000000000000000000000000000000000000000000000000000000000000000000000000000000000000000000000000000000000000000000000E0F97F
:671A8E0008000000000000000000000000000000000000000000000000000000000000000000000000000000000000000000000000000000000000000000000000000000000000000000000000000000000000000000000000000000000000000000000000000000004AFBA4
:671AF5000000000000000000000000000000000000000000000000000000000000000000000000000000000000000000000000000000000000000000000000000000000000000000000000000000000000000000000000000000000000002400000000000000000000C0FFA7
:671B5C000000000000000000000000000000000000000000000000000000000000000000000000000000000000000000000000000000000000000000000000000000000000000000000000000000000000000000000000000000000000300000000000000000000000D0F929
:671BC3000400000000000000000000000000000000000000000000000000000000000000000000000000000000000000000000000000000000000000000000000000000000000000000000000000000000000000000000000000000000000001000000000000000000E1FCD9
:671C2A000000000000000000000000000000000000000000000000000000000000000000000000000000000000000000000000000000000000000000000000000000000000000000000000000000000000000000000000000000000000000200000000000000000000E0FB76
:671C91000000000000000000000000000000000000000000000000000000000000000000000000000000000000000000000000000000000000000000000000000000000000000000000000000000000000000000000000000000000000000000000000000000000000E0F913
:671CF800200004800010000240000800012000048000100002400008000120000480001000024000080001200004000000000000000000000000000000002000048000100002400008000120000480001000024000080001200004800010000240000800012000040080F9CA
:671D5F00000000000000000000000000000000000000000000000000000000000000000000000000000000000000000000000000000000000000000000000000000000000000000000000000000000000000000000000000000000000080000000000000000000000060F944
:671DC60028000480001000024000080001200004800010000240000800012000048000100002400008000120000400000000000000000000000000000000200004800010000240000800012000048000100002400008000120000480001000024000080001200004002AFB47
:671E2D00000000000000000000000000000000000000000000000000000000000000000000000000000000000000000000000000000000000000000000000000000000000000000000000000000000000000000000000000000000000080000000000000000000000060F975
:671E9400200004800010000240000800012000048000100002400008000120000480001000024000080001200004000000000000000000000000000000002000048000100002400008000120000480001000024000080001200004800000000240000800012000040090F92C
:671EFB000400000000000000000000000000000000000000000000000000000000000000000000000000000000000000000000000000000000000000000000000000000000000000000000000000000000000000000000000000000000000000000000000000000000F1FC8F
:671F6200200004800010000240000800012000048000100002400008000120000480001000024000080001200004000000000000000000000000000000002000048000100002400008000120000480001000024000080001200004800010000240000800012000040080F95D
:671FC9000000000000000000000000000000000000000000000000000000000000000000000000000000000000000000000000000000000000000000000000000000000000000000000000000000000000000000000000000000000000000000000000000000000000E0F9D8
:672030000000000000000000000000000000000000000000000000000000000000000000000000000000000000000000000000000000000000000000000000000000000000000000000000000000000000000000000000000000000000000000000000000000000000E0F970
:672097000000000000000000000000000000000000000000000000000000000000000000000000000000000000000000000000000000000000000000000000000000000000000000000000000000000000000000000000000000000000000000000000000000000000E0F909
:6720FE000000000000000000000000000000000000000000000000000000000000000000000000000000000000000000000000000000000000000000000000000000000000000000000000000000000000000000000000000000000000000000000000000000000000E0F9A2
:672165000000000000000000000000000000000000000000000000000000000000000000000000000000000000000000000000000000000000000000000000000000000000000000000000000000000000000000000000000000000000000000000000000000000000E0F93A
:6721CC000000000000000000000000000000000000000000000000000000000000000000000000000000000000000000000000000000000000000000000000000000000000000000000000000000000000000000000000000000000000000000000000000000000000E0F9D3
:672233000000000000000000000000000000000000000000000000000000000000000000000000000000000000000000000000000000000000000000000000000000000000000000000000000000000000000000000000000000000000000000000000000000000000E0F96B
:67229A000000000000000000000000000000000000000000000000000000000000000000000000000000000000000000000000000000000000000000000000000000000000000000000000000000000000000000000000000000000000000000000000000000000000E0F904
:672301000000000000000000000000000000000000000000000000000000000000000000000000000000000000000000000000000000000000000000000000000000000000000000000000000000000000000000000000000000000000000000000000000000000000E0F99C
:672368000000000000000000000000000000000000000000000000000000000000000000000000000000000000000000000000000000000000000000000000000000000000000000000000000000000000000000000000000000000000000000000000000000000000E0F935
:6723CF000000000000000000000000000000000000000000000000000000000000000000000000000000000000000000000000000000000000000000000000000000000000000000000000000000000000000000000000000000000000000000000000000000000000E0F9CE
:672436000000000000000000000000000000000000000000000000000000000000000000000000000000000000000000000000000000000000000000000000000000000000000000000000000000000000000000000000000000000000000000000000000000000000E0F966
:67249D000000000000000000000000000000000000000000000000000000000000000000000000000000000000000000000000000000000000000000000000000000000000000000000000000000000000000000000000000000000000000000000000000000000000E0F9FF
:672504000000000000000000000000000000000000000000000000000000000000000000000000000000000000000000000000000000000000000000000000000000000000000000000000000000000000000000000000000000000000000000000000000000000000E0F997
:67256B000000000000000000000000000000000000000000000000000000000000000000000000000000000000000000000000000000000000000000000000000000000000000000000000000000000000000000000000000000000000000000000000000000000000E0F930
:6725D2000000000000000000000000000000000000000000000000000000000000000000000000000000000000000000000000000000000000000000000000000000000000000000000000000000000000000000000000000000000000000000000000000000000000E0F9C9
:672639000000000000000000000000000000000000000000000000000000000000000000000000000000000000000000000000000000000000000000000000000000000000000000000000000000000000000000000000000000000000000000000000000000000000E0F961
:6726A0000000000000000000000000000000000000000000000000000000000000000000000000000000000000000000000000000000000000000000000000000000000000000000000000000000000000000000000000000000000000000000000000000000000000E0F9FA
:672707000000000000000000000000000000000000000000000000000000000000000000000000000000000000000000000000000000000000000000000000000000000000000000000000000000000000000000000000000000000000000000000000000000000000E0F992
:67276E000000000000000000000000000000000000000000000000000000000000000000000000000000000000000000000000000000000000000000000000000000000000000000000000000000000000000000000000000000000000000000000000000000000000E0F92B
:6727D5000000000000000000000000000000000000000000000000000000000000000000000000000000000000000000000000000000000000000000000000000000000000000000000000000000000000000000000000000000000000000000000000000000000000E0F9C4
:67283C000000000000000000000000000000000000000000000000000000000000000000000000000000000000000000000000000000000000000000000000000000000000000000000000000000000000000000000000000000000000000000000000000000000000E0F95C
:6728A3000000000000000000000000000000000000000000000000000000000000000000000000000000000000000000000000000000000000000000000000000000000000000000000000000000000000000000000000000000000000000000000000000000000000E0F9F5
:67290A000000000000000000000000000000000000000000000000000000000000000000000000000000000000000000000000000000000000000000000000000000000000000000000000000000000000000000000000000000000000000000000000000000000000E0F98D
:672971000000000000000000000000000000000000000000000000000000000000000000000000000000000000000000000000000000000000000000000000000000000000000000000000000000000000000000000000000000000000000000000000000000000000E0F926
:6729D8000000000000000000000000000000000000000000000000000000000000000000000000000000000000000000000000000000000000000000000000000000000000000000000000000000000000000000000000000000000000000000000000000000000000E0F9BF
:672A3F000000000000000000000000000000000000000000000000000000000000000000000000000000000000000000000000000000000000000000000000000000000000000000000000000000000000000000000000000000000000000000000000000000000000E0F957
:672AA6000000000000000000000000000000000000000000000000000000000000000000000000000000000000000000000000000000000000000000000000000000000000000000000000000000000000000000000000000000000000000000000000000000000000E0F9F0
:672B0D000000000000000000000000000000000000000000000000000000000000000000000000000000000000000000000000000000000000000000000000000000000000000000000000000000000000000000000000000000000000000000000000000000000000E0F988
:672B74000000000000000000000000000000000000000000000000000000000000000000000000000000000000000000000000000000000000000000000000000000000000000000000000000000000000000000000000000000000000000000000000000000000000E0F921
:672BDB000000000000000000000000000000000000000000000000000000000000000000000000000000000000000000000000000000000000000000000000000000000000000000000000000000000000000000000000000000000000000000000000000000000000E0F9BA
:672C42000000000000000000000000000000000000000000000000000000000000000000000000000000000000000000000000000000000000000000000000000000000000000000000000000000000000000000000000000000000000000000000000000000000000E0F952
:672CA9000000000000000000000000000000000000000000000000000000000000000000000000000000000000000000000000000000000000000000000000000000000000000000000000000000000000000000000000000000000000000000000000000000000000E0F9EB
:672D10000000000000000000000000000000000000000000000000000000000000000000000000000000000000000000000000000000000000000000000000000000000000000000000000000000000000000000000000000000000000000000000000000000000000E0F983
:672D77000000000000000000000000000000000000000000000000000000000000000000000000000000000000000000000000000000000000000000000000000000000000000000000000000000000000000000000000000000000000000000000000000000000000E0F91C
:672DDE000000000000000000000000000000000000000000000000000000000000000000000000000000000000000000000000000000000000000000000000000000000000000000000000000000000000000000000000000000000000000000000000000000000000E0F9B5
:672E45000000000000000000000000000000000000000000000000000000000000000000000000000000000000000000000000000000000000000000000000000000000000000000000000000000000000000000000000000000000000004000000000000000000000A0FD49
:672EAC000000000000000000000000000000000000000000000000000000000000000000000000000000000000000000000000000000000000000000000000000000000000000000000000000000000000000000000000000000000000008000000000000000000000E8F95E
:672F13000000000000000000000000000000000000000000000000000000000000000000000000000000000000000000000000000000000000000000000000000000000000000000000000000000000000000000000000000000000000000000000000000000000000E0F97E
:672F7A000000000000000000000000000000000000000000000000000000000000000000000000000000000000000000000000000000000000000000000000000000000000000000000000000000000000000000000000000000000000000000000000000000000000E0F917
:672FE1000000000000000000000000000000000000000000000000000000000000000000000000000000000000000000000000000000000000000000000000000000000000000000000000000000000000000000000000000000000000000000000000000000000000E0F9B0
:673048000000000000000000000000000000000000000000000000000000000000000000000000000000000000000000000000000000000000000000000000000000000000000000000000000000000000000000000000000000000000000000000000000000000000E0F948
:6730AF000000000000000000000000000000000000000000000000000000000000000000000000000000000000000000000000000000000000000000000000000000000000000000000000000000000000000000000000000000000000000000000000000000000000E0F9E1
:673116000000000000000000000000000000000000000000000000000000000000000000000000000000000000000000000000000000000000000000000000000000000000000000000000000000000000000000000000000000000000000000000000000000000000E0F979
:67317D000000000000000000000000000000000000000000000000000000000000000000000000000000000000000000000000000000000000000000000000000000000000000000000000000000000000000000000000000000000000000000000000000000000000E0F912
:6731E4000000000000000000000000000000000000000000000000000000000000000000000000000000000000000000000000000000000000000000000000000000000000000000000000000000000000000000000000000000000000000000000000000000000000E0F9AB
:67324B000000000000000000000000000000000000000000000000000000000000000000000000000000000000000000000000000000000000000000000000000000000000000000000000000000000000000000000000000000000000002000000000000000000000C0FB41
:6732B200000000000000000000000000000000000000000000000000000000000000000000000000000000000000000000000000000000000000000000000000000000000000000040000000000000000000000000000000000000800820000000000000000000000008F9CC
:673319000000000000000000000000000000000000000000000000000000000000000000000000000000000000000000000000000000000000000000000000000000000000000000000000000000000000000000000000000000000000000000000000000000000000E0F974
:673380000000000000000000000000000000000000000000000000000000000000000000000000000000000000000000000000000000000000000000000000000000000000000000100000000000000000000000000000000000000000000000000000000000000000F0F9ED
:6733E7000000000000000000000000000000000000000000000000000000000000000000000000000000000000000000000000000000000000000000000000000000000000000000000000000000000000000000000000000000000000000000000000000000000000E0F9A6
:67344E000000000000000000000000000000000000000000000000000000000000000000000000000000000000000000000000000000000000000000000000000000000000000000000000000000000000000000000000000000000000000000000000000000000000A4FD76
:6734B5000000000000000000000000000000000000000000000000000000000000000000000000000000000000000000000000000000000000000000000000000000000000000000000000000000000000000000000000000000000000000000000000000000000000E0F9D7
:67351C000000000000000000000000000000000000000000000000000000000000000000000000000000000000000000000000000000000000000000000000000000000000000000000000000000000000000000000000000000000000000000000000000000000000E0F96F
:673583000000000000000000000000000000000000000000000000000000000000000000000000000000000000000000000000000000000000000000000000000000000000000000000000000000000000000000000000000000000000000000000000000000000000E0F908
:6735EA000000000000000000000000000000000000000000000000000000000000000000000000000000000000000000000000000000000000000000000000000000000000000000000000000000000000000000000000000000000000000000000000000000000000E0F9A1
:673651000000000000000000000000000000000000000000000000000000000000000000000000000000000000000000000000000000000000000000000000000000000000000000000000000000000000000000000000000000000000000000000000000000000000E0F939
:6736B8000000000000000000000000000000000000000000000000000000000000000000000000000000000000000000000000000000000000000000000000000000000000000000000000000000000000000000000000000000000000000000000000000000000000E0F9D2
:67371F000000000000000000000000000000000000000000000000000000000000000000000000000000000000000000000000000000000000000000000000000000000000000000000000000000000000000000000000000000000000000000000000000000000000E0F96A
:673786000000000000000000000000000000000000000000000000000000000000000000000000000000000000000000000000000000000000000000000000000000000000000000000000000000000000000000000000000000000000000000000000000000000000E0F903
:6737ED000000000000000000000000000000000000000000000000000000000000000000000000000000000000000000000000000000000000000000000000000000000000000000000000000000000000000000000000000000000000000000000000000000000000E0F99C
:673854000000000000000000000000000000000000000000000000000000000000000000000000000000000000000000000000000000000000000000000000000000000000000000000000000000000000000000000000000000000000000000000000000000000000E0F934
:6738BB00000014820600001A000048002130000440000000000000000081100000802210000A01000800000000000000000000000000000000000000000000000000000000000000000000000000000000000000000000000000000000000000000000000000000000E0F9E4
:673922000000000800000018000000800000000000000000000000000000000000000408001004000000000000000000000000000000000000000000000000000000000000000000000000000000000000000000000000000000000000000000000000000000000000B8FDC9
:6739890000001020000800180000402004E00110400000000000000000040000000000C0000000001800000000000000000000000000000000000000000000000000000000000000000000000000000000000000000000000000000000000000000000000000000000A0FD79
:6739F0000000B000100000180000000100214800000000000000000000800400000010C100101100080000000000000000000000000000000000000000000000000000000000000000000000000000000000000000000000000000000000000000000000000000000050FB65
:673A57000000B00010000080200000048080091001000000000000000028000000008200484800006008000000000000000000000000000000000000000000000000000000000000000000000000000000000000000000000000000000000000000000000000000000C8FE22
:673ABE0000002C88010800060000381003E2410C0800000000000000000702000080073000160400780000000000000000000000000000000000000000000000000000000000000000000000000000000000000000000000000000000000000000000000000000000068F8AA
:673B25000000304000000018040060000C00001000000000000000000008000000000000000800000020000000000000000000000000000000000000000000000000000000000000000000000000000000000000000000000000000000000000000000000000000000C0F948
:673B8C000000200080000018010020812C9021200800000000000000000C020000002204141820000001000000000000000000000000000000000000000000000000000000000000000000000000000000000000000000000000000000000000000000000000000000A0FB57
:673BF300000034800200008260000802012010360A00102200000000000D020000802400008200006802000000000000000000000000000000000000000000000000000000000000000000000000000000000000000000000000000000000000000000000000000000F0FA9D
:673C5A00000000000401000000000020000000000000000000000000000000000000020800082000408000000000000000000000000000000000000000000000000000000000000000000000000000000000000000000000000000000000000000000000000000000050FCA0
:673CC10000000C0006000000C8002080000400300000400000000000000C00000000060000062000782000000000000000000000000000000000000000000000000000000000000000000000000000000000000000000000000000000000000000000000000000000088FF57
:673D2800080004428400000041000000800081001000004800000000000004000000160100020100080100000000000000000000000000000000000000000000000000000000000000000000000000000000000000000000000000000000000000000000000000000002FDA2
:673D8F00000030041200000008202112200009800000000001000000004010000000240800400000600100000000000000000000000000000000000000000000000000000000000000000000000000000000000000000000000000000000000000000000000000000058FC11
:673DF60000003C8005080006C000180003E2003D0800B00000000000000F000000800100000610007840000000000000000000000000000000000000000000000000000000000000000000000000000000000000000000000000000000000000000000000000000000C8F9C6
:673E5D000400001002080000000320000C80011000000000000000000004040000000600000000000000000000000000000000000000000000000000000000000000000000000000000000000000000000000000000000000000000000000000000000000000000000C9FA4F
:673EC400000080001400001020834014809044304000802200000000004C00000000240400800200600A00000000000000000000000000000000000000000000000000000000000000000000000000000000000000000000000000000000000000000000000000000088FEB0
:673F2B0000001481060000020000080085B0010400001004000000000001000000800002001A0000680200000000000000000000000000000000000000000000000000000000000000000000000000000000000000000000000000000000000000000000000000000058FBE2
:673F9200000000080600000000000000008001000000002000000000000C040000000000000000004080000000000000000000000000000000000000000000000000000000000000000000000000000000000000000000000000000000000000000000000000000000D8FA77
:673FF9000000004006080000080078000408800000000000000000000004000000000000000000007820000000000000000000000000000000000000000000000000000000000000000000000000000000000000000000000000000000000000000000000000000000F8FB78
:67406000080000021000000001000811288009000000001000000000008C040000001008000005006801000000000000000000000000000000000000000000000000000000000000000000000000000000000000000000000000000000000000000000000000000000D2F923
:6740C700000000091600000005006000288285001000400401000000004C00000000000100400400600100000000000000000000000000000000000000000000000000000000000000000000000000000000000000000000000000000000000000000000000000000038FF61
:67412E0000002C8007080006000078100FE0010C0000300000000000000F020000800300001E0000784000000000000000000000000000000000000000000000000000000000000000000000000000000000000000000000000000000000000000000000000000000090F8C3
:674195000400000006000000000060200C8001301000000001000000000C08000000000000180800600000000000000000000000000000000000000000000000000000000000000000000000000000000000000000000000000000000000000000000000000000000031FBAB
:6741FC000000304086000018200060008C8285300200000000000000002800000000000800180100600A00000000000000000000000000000000000000000000000000000000000000000000000000000000000000000000000000000000000000000000000000000078FDE1
:6742630000000480000000020000080141A205040000D00000000000000500000080C210008200000802000000000000000000000000000000000000000000000000000000000000000000000000000000000000000000000000000000000000000000000000000000C0FA0C
:6742CA00000000000600000000000010008001020000000000000000000804000000000000182000408000000000000000000000000000000000000000000000000000000000000000000000000000000000000000000000000000000000000000000000000000000098F95F
:6743310000000C00000800000000600000900130000030000000000000000000008003C0000620001820000000000000000000000000000000000000000000000000000000000000000000000000000000000000000000000000000000000000000000000000000000A8FB7C
:6743980008000400100000000000600880000082200010080100000000880800008020C100120100680100000000000000000000000000000000000000000000000000000000000000000000000000000000000000000000000000000000000000000000000000000042FB55
:6743FF000000B01010000000010000204080493009000010000000000044020000002400020102006008000000000000000000000000000000000000000000000000000000000000000000000000000000000000000000000000000000000000000000000000000000E0FA63
:6744660000003C80010800062000580003E4013C0000300000000000000B00000000033100060000180000000000000000000000000000000000000000000000000000000000000000000000000000000000000000000000000000000000000000000000000000000020FFDC
:6744CD000400300000000018080060000080000220000040000000000004000000000600000000006000000000000000000000000000000000000000000000000000000000000000000000000000000000000000000000000000000000000000000000000000000000E1FFA8
:67453400000030008000001801006020089005B00000000200000000000C10000000060114401000004100000000000000000000000000000000000000000000000000000000000000000000000000000000000000000000000000000000000000000000000000000060FB65
:67459B000000048200000002000028040120083400001000000000000081000000800000000200006802000000000000000000000000000000000000000000000000000000000000000000000000000000000000000000000000000000000000000000000000000000B0F883
:674602000000202000000018000040400000800000000000000000000008080000000000000000000080000000000000000000000000000000000000000000000000000000000000000000000000000000000000000000000000000000000000000000000000000000A0FECB
:674669000000301006080000000020800F8200020000000000000000000C04000080010000180000782000000000000000000000000000000000000000000000000000000000000000000000000000000000000000000000000000000000000000000000000000000068FEC2
:6746D000080020021000000021000004810000004200000000000000008800000080000000000400280100000000000000000000000000000000000000000000000000000000000000000000000000000000000000000000000000000000000000000000000000000071F9C2
:674737000000900810000040000020110C8090800800C048000000000024020000002608001800000008000000000000000000000000000000000000000000000000000000000000000000000000000000000000000000000000000000000000000000000000000000C3FD22
:67479E0000003C8001080006100058000F62003C0000F00000000000000F000000800700001E0400780000000000000000000000000000000000000000000000000000000000000000000000000000000000000000000000000000000000000000000000000000000040FE76
:674805000400100000000000100060000C844030400000800000000000040000000006000000100000000000000000000000000000000000000000000000000000000000000000000000000000000000000000000000000000000000000000000000000000000000003AFDB7
:67486C000000B01080000040000040440C0005300200000400000000002C04000000060000580000604100000000000000000000000000000000000000000000000000000000000000000000000000000000000000000000000000000000000000000000000000000068F90A
:6748D300000004900000001A2000680085A0013400001000000000000001020000800000000A05006802000000000000000000000000000000000000000000000000000000000000000000000004000000000000000000000000000000000000000000000000000000E8FDF9
:67493A000000000000000000000000000008400000000000000000000000000000000000001000000080000000000000000000000000000000000000000000000000000000000000000000000000000000000000000000000000000000000000000000000000000000B8F88E
:6749A100000030400008000020000000048801000000000000000000000C10000080010000002000782000000000000000000000000000000000000000000000000000000000000000000000000C000000000000000000000000000000000000000000000000000000C8FE63
:674A08000800800010000040000000842C008000040000000000000000200000008000000050000028010000000000000000000000000000000000000000000000000000000000000000000000040000000000000000000000000000000000000000000000000000004AF9DB
:674A6F000000000116000008010000148C020802080000240000000000401000000046010048080060080000000000000000000000000000000000000000000000000000000000000000000000300A0000000000000000000000000000000000000000000000000000E8FD7A
:674AD60000002C900108001E040078000BE0013C0000300000000000000B00000080070000160000780000000000000000000000000000000000000000000000000000000000000000000000003C00000000000000000000000000000000000000000000000000000028FA44
:674B3D000400002000000000040060000C8080300000C00000000000000008000000060000080800600000000000000000000000000000000000000000000000000000000000000000000000003000000000000000000000000000000000000000000000000000000009FCDA
:674BA400000030008000000001006080088409304000C00201000000000C000000000600001800006041000000000000000000000000000000000000000000000000000000000000000000000030000000000000000000000000000000000000000000000000000000F0FB6B
:674C0B00000004860000001A00006800052804142000D028000000000001000000802202001A00000800000000000000000000000000000000000000000000000000000000000000000000000094100000000000000000000000000000000000000000000000000000D8FD99
:674C72000000200000000018000000000000002200000000000000000000000000000400001800000000000000000000000000000000000000000000000000000000000000000000000000000020000000000000000000000000000000000000000000000000000000F8FF4E
:674CD9000000301000080018000000000010003C0800700000000000000000000080030000060000600000000000000000000000000000000000000000000000000000000000000000000000001C00000000000000000000000000000000000000000000000000000020FA31
:674D400008002002100000002100000A8000010600009000010000000000000000800400000200006000000000000000000000000000000000000000000000000000000000000000000000000024000000000000000000000000000000000000000000000000000000C2FEC5
:674DA700000010081000005800000010200430300000C008000000000040100000000200000002000082000000000000000000000000000000000000000000000000000000000000000000000010000000000000000000000000000000000000000000000000000000D8FF0C
:674E0E0000003C800708001E100078000B60003C0800F02000000000000300000080050000060000180000000000000000000000000000000000000000000000000000000000000000000000002C000000000000000000000000000000000000000000000000000000B8FC87
:674E7500040010000000001810006020000000021000C00000000000000C100000000200000020000000000000000000000000000000000000000000000000000000000000000000000000000010000000000000000000000000000000000000000000000000000000C9FD34
:674EDC000000B01080000058000060042C0404300000C01000000000002C00000000040000000100001000000000000000000000000000000000000000000000000000000000000000000000002000000000000000000000000000000000000000000000000000000008FED8
:674F4300000004A10000008200006801212004340A00100000000000000102000080000000020000080200000034000000000000000000000000000000000000000000000000000000000000000400000000000000000000000000000000000000000000000000000078FEA7
:674FAA00000000000000000020000010080800020000000000000000000000000000000000000000008000000030000000000000000000000000000000000000000000000000000000000000000000000000000000000000000000000000000000000000000000000060FB53
:675011000000304000080018100000000004000200000000000000000007100000800700001E0000182000000030000000000000000000000000000000000000000000000000000000000000003C00000000000000000000000000000000000000000000000000000058FEDC
:675078000800800010000050000000410000048020000002010000000049000000800600001A00002801000000300000000000000000000000000000000000000000000000000000000000000034000000000000000000000000000000000000000000000000000000A2F9F0
:6750DF000000000110000040000020204010100010000004000000000000000000001001001802000008000000B00000000000000000000000000000000000000000000000000000000000000080080000000000000000000000000000000000000000000000000000D8FB27
:6751460000002C9001080006100078000360403C0000304000000000000F020000800100001E000018000000003C400000000000000000000000000000000000000000000000000000000000000C00000000000000000000000000000000000000000000000000000018FBFD
:6751AD00040000200600001800002080001000101000004000000000000404000000000100182000000000000000000000000000000000000000000000000000000000000000000000000000000008000000000000000000000000000000000000000000000000000021FFE0
:67521400000030008000001804004001000091200200C00000000000000C000000800000001801000041000000000400000000000000000000000000000000000000000000000000000000000004000000000000000000000000000000000000000000000000000000D8FFEE
:67527B000000000000000000000000000000000000000000000000000000000000000000000000000000000000000000000000000000000000000000000000000000000000000000000000000000000000000000000000000000000000000000000000000000000000E0F9F3
:6752E200200004800010000240000800012000048000100002400008000120000480001000024000080001200004000000000000000000000000000000002000048000100002400008000120000480001000024000080001200004800010000240000800012000040080F9AA
:675349000000000000000000000000000000000000000000000000000000000000000400000000000000000000000000000000000000000000000000000000000000000000000000000000000020000000000000000000000000000000000000000000000000000000E0FFFA
:6753B000280004800010000240000800012000048000100002400008000120000480001000024000080001200004000000000000000000000000000000002000048000100002400008000120000480001000024000080001200004800010000240000800012000040019F83B
:67541700000020000000000000024000080001200000800000000000000800000000440400100000400000000000000000000000000000000000000000000000000000000000000000000000002000000000000000000000000000000000000000000000000000000093F8D8
:67547E00200000800010000200000000000000008000000002400008000020000400001000004000000001200004000000000000000000000000000000002000048000100002400008000120000080001000024000080001200004800010000240000800012000040048F954
:6754E5000400000000000000000000000000000000000000000000000000000000000000000000000000000000000000000000000000000000000000000000000000000000000000000000000000000000000000000000000000000000000000000000000000000000C2FF9B
:67554C00200004800010000240000800012000048000100002400008000120000480001000024000080001200004000000000000000000000000000000002000048000100002400008000120000480001000024000080001200004800010000240000800012000040080F93D
:6755B3000000000000000000000000000000000000000000000000000000000000000000000000000000000000000000000000000000000000000000000000000000000000000000000000000000000000000000000000000000000000000000000000000000000000E0F9B8
:67561A000000000000000000000000000000000000000000000000000000000000000000000000000000000000000000000000000000000000000000000000000000000000000000000000000000000000000000000000000000000000000000000000000000000000E0F950
:675681000000000000000000000000000000000200000000010000000000000000000000000000000000000000000000000000000000000000000000000000000000000000000000000000000000000000000000000000000000000000000000000000000000000000F0FAD5
:6756E8000000000000000000000000000040000000000000000000000000000000000000000000000000000000000000000000000000000000000000000000000000000000000000000000000000000000000000000000000000000000000000000000000000000000E0FD3E
:67574F000000000000000000000000000000000000000000000000000000000000000000000000000000000000000000000000000000000000000000000000000000000000000000000000000000000000000000000000000000000000000000000000000000000000E0F91A
:6757B6000000000000000000000000000000000000000000000000000000000000000000000000000000000000000000000000000000000000000000000000000000000000000000000000000000000000000000000000000000000000000000000000000000000000E0F9B3
:67581D000000000000000000000040000028010000009000000000000008000000000000000000000000000000000000000000000000000000000000000000000000000000000000000000000000000000000000000000000000000000000000000000000000000000E8FF3C
:675884000000000000000000800010000200000800000000000000000002000000000000000000000000000000000000000000000000000000000000000000000000000000000000000000000000000000000000000000000000000000000000000000000000000000C8FA5F
:6758EB000000000000000000000000000050000000000000000000000002000000000000000000000000000000000000000000000000000000000000000000000000000000000000000000000000000000000000000000000000000000000000000000000000000000C0FC48
:675952000000000000000000000000000000000000000000000000000000000000001000000000000000000000000000000000000000000000000000000000000000000000000000000000000000000000000000000000000000000000000000000000000000000000F0F8F6
:6759B9000000000000000000000000000000000000000000000000000000000000000000000000000000000000000000000000000000000000000000000000000000000000000000000000000000000000000000000000000000000000000000000000000000000000E0F9AE
:675A20000000000000000000000000000000000000000000000000000000000000000000000000000000000000000000000000000000000000000000000000000000000000000000000000000000000000000000000000000000000000000000000000000000000000E0F946
:675A87000000080000000000000000000000000000000000000000000000000000000000000000000000000000000000000000000000000000000000000000000000000000000000000000000000000000000000000000000000000000000000000000000000000000E8F9CF
:675AEE000000A00000000000000000000000000000000000000000000028000000000000000000000000000000000000000000000000000000000000000000000000000000000000000000000000000000000000000000000000000000000000000000000000000000C0FBCE
:675B55000000000000000000000000000000000000000000000000000000000000000000000000000000000000000000000000000000000000000000000000000000000000000000000000000000000000000000000000000000000000000000000000000000000000E0F910
:675BBC00000000080240000804000000000040000000000000000000000800000000000020000000201000000000000000000000000000000000000000000000000000000000000000000000000000000000000000000000000000000000000000000000000000000008FE8E
:675C2300000000A01490020210000000000028010000000000000000000100000000000080000000084000000000000000000000000000000000000000000000000000000000000000000000000000000000000000000000000000000000000000000000000000000018FDBB
:675C8A000000000080A0031029000000800800000000000000000000000000000080008000000000400000000000000000000000000000000000000000000000000000000000000000000000000000000000000200000000000000000000000000000000000000000010FE7F
:675CF1000000000000000000000000000000000000000000000000000000000000000000000000000000000000000000000000000000000000000000000000000000000000000000000000000000000000000000000000000000000000000000000000000000000000E0F973
:675D5800000000000041000800000000000000000000000000000000000000000000004000000000200000000000000000000000000000000000000000000000000000000000000000000000000000000000001000000000000000000000000000000000000000000010FF1C
:675DBF000000000000000000000000000000008000000000000000000000000000000000000000000000000000000000000000000000000000000000000000000000000000000000000000000000000000000000000000000000000000000000000000000000000000E8F91C
:675E26000000000000000000000000000000000000000000000000000010000000000000000000000000000000000000000000000000000000000000000000000000000000000000000000000000000000000000000000000000000000000000000000000000000000E0F82D
:675E8D000000000000000000000000000000000000000000000000000000000000000000000000000000000000000000000000000000000000000000000000000000000000000000000000000000000000000000000000000000000000000000000000000000000000E0F9D5
:675EF4000000000000000000000000000000000000000000000000000000000000000000000000000000000000000000000000000000000000000000000000000000000000000000000000000000000000000000000000000000000000000000000000000000000000E0F96E
:675F5B000000000000000000000000002000000000000000000000000000000000000000000000000000000000000000000000000000000000000000000000000000000000000000000000000000000000000000000000000000000000000000000000000000000000C0FB04
:675FC2000000000000000000000000000000000000000000000000000000000000000000000000000000000000000000000000000000000000000000000000000000000000000000000000000000000000000000000000000000000000000000000000000000000000E0F99F
:67602900000000000000000000008000000002400000000000000000001000000000000000000000000000000000000000000000000000000000000000000000000000000000000000000000000000000000000000000000000000000000000000000000000000000008FE38
:67609000000000000000000000000004800000000200000000000000000000000000000000000000000000000000000000000000000000000000000000000000000000000000000000000000000000000000000000000000000000000000000000000000000000000088FD9E
:6760F7000000000000000000000000000000000000000000000000000000000000000000000000000000000000000000000000000000000000000000000000000000000000000000000000000000000000000000000000000000000000000000000000000000000000E0F969
:67615E000000000000000000000000000000000000000000000000000000000000000000000000000000000000000000000000000000000000000000000000000000000000000000000000000000000000000000000000000000000000000000000000000000000000E0F901
:6761C500000000000000000000000800000000000000000000000000000000000000000000000000000000000000000000000000000000000000000000000000000000000000000000000000000000000000000000000000000000000000000000000000000000000060F912
:67622C000000000000000000000000000000000000002000000000000000000000000000000000000000000000000000000000000000000000000000000000000000000000000000000000000000000000000000000000000000000000000000000000000000000000C0FB30
:67629300000000000000000000000000008000000800000000000000000000000080000C00080000000000000000000000000000000000000000000000000000000000000000000000000000000000000000000000000000000000000000000000000000000000000020F96F
:6762FA000000100000000008000020000000001100000080000000000004000000800000000800000000000000000000000000000000000000000000000000000000000000000000000000000000000000000000000000000000000000000000000000000000000000A0FB4D
:676361000000000000020000000000000004000000000002000000000000000000000000000000000000000000000000000000000000000000000000000000000000000000000000000000000000000000000000000000000000000000000000000000000000000000A0FB32
:6763C800000000000000000000000080000000000000000000000000000000000000000000000000000000000000000000000000000000000000000000000000000000000000000000000000000000000000000000000000000000000000000000000000000000000060F995
:67642F000000040000000000080000000000000400000000000000000000000000000100000000000000000000000000000000000000000000000000000000000000000000000000000000000010000000000000000000000000000000000000000000000000000000A8F944
:676496000000000000000000000000000000000000000000000000000000000000000204000001000004000000000000000000000000000000000000000000000000000000000000000000000000000000000000000000000000000000000000000000000000000000F0FBA9
:6764FD00000000100000000400001024000000080000000000000000008004000000000040000900000000000000000000000000000000000000000000000000000000000000000000000000000000000000000000000000000000000000000000000000000000000040F9E2
:67656400000000100000000008000800040401001000000000000000000000000000003000040000002000000000000000000000000000000000000000000000000000000000000000000000000000000000000000000000000000000000000000000000000000000028F922
:6765CB000000000000000000000000000000000000000000000000000000000000000000000000000000000000000000000000000000000000000000000000000000000000000000000000000000000000000000000000000000000000000000000000000000000000E0F990
:676632000000000000000000000000000000000000000000000000000000000000000000000000000000000000000000000000000000000000000000000000000000000000000000000000000000000000000000000000000000000000000000000000000000000000E0F928
:6766990000000021000000000000000040008000010000A000000000004000000000000000801000004000000000000000000000000000000000000000000000000000000000000000000000000000000000000000000000000000000000000000000000000000008018FD73
:676700000000040000000000000000300002400008001060000000000000020000000000000200000800000000000000000000000000000000000000000000000000000000000000000000000000000000000000000000000000000000000000000000000000000000C8FA76
:676767000000000000000000000000100000000000000000000000000000000000000000000000000000000000000000000000000000000000000000000000000000000000000000000000000000000000000000000000000000000000000000000000000000000000F0F9D2
:6767CE00800000008040000004000040008020000000402000020000000401000000000000000401201000020000000000000000000000000000000000000000200000001010000000000000000004000000000000000000008000000000000000000000000000000010FFCF
:676835002000000000940200100A006A002005A100009096001000000001080000000000000050000840000800000000000000000000000000000000000000000400000080020000000000000000200000000000000000000000010000000000000000000000000000D8FEA0
:67689C000004000082648B000268C002004021000400800000000090000801000000011011000008400040000020000000000000000000000000000000000000000004800000000000000800002800000000000002000000000000000480000000000000000000000030F949
:676903000000000004400000000000000000000000000000000000000000000000000000000000000000000000000000000000000000000000000000000000000000000000000000000000000000000000000000000000000000000000000000000000000000000000E0F910
:67696A000000000000010000048020000020000104004000000000000008010000000000100000002000000000100000000000000000000000000000000000000080002000000000000002000010000000000040000000000000000001200000000000000000000000B0FDB3
:6769D100000000400000000020000080000000004000000000000000000010000000000000002000000000000000000000000000000000000000000000000000000000000000000000000000000000000000000000000000000000000000000000000000000000000010FB04
:676A38000000000000000000000000000800000000000000000000000000000000000000000000000000000000000000000000000000000000000000000000000000000000000000000000000000000000000000000000000000000000000000000000000000000080E0F996
:676A9F000000000000000000000000000000000000000000000000000000000000000000000000000000000000000000000000000000000000000000000000000000000000000000000000000000000000000000000000000000000000000000000000000000000000E0F9B7
:676B06000000000000000000000000000000000000000000000000000000000000000000000000000000000000000000000000000000000000000000000000000000000000000000000000000000000000000000000000000000000000000000000000000000000000E0F94F
:676B6D000000008000000000000020400100000020000000000000000000020000000000000000000000000000040000000000000000000000000000000000000000000000000000000000000000000000000000000000000000000000000000000000000000000000C8FEF4
:676BD4000000000000000000010000000000000000000000000000000000000000008002000000000000000000000000000000000000000000000000000000000000000000000000000000000000000000000000000000000000000000000000000000000000000000D8F807
:676C3B000000200400000080140000081C0100000000000000000000000001000000000000000000000000000000000000000000000000000000000000000000000000000000000000000000000000000000000000000000000000000000000000000000000000000088FD8F
:676CA2000000000800000000000000000000800000000000000000000000040000000000000000000000000000000000000000000000000000000000000000000000000000000000000000000000000000000000000000000000000000000000000000000000000000A8FD5A
:676D09000000000000000000000000000000000000000000000000000000000000000000000000000000000000000000000000000000000000000000000000000000000000000000000000000000000000000000000000000000000000000000000000000000000000E0F94A
:676D70000000000100000000000000000000000000000000000000000000000000000000000000000000000000000000000000000000000000000000000000000000000000000000000000000000000000000000000000000000000000000000000000000000000000E0F8E3
:676DD700000010000000000000000000000010000000400000000000000000000000000000000000200000000000000000000000000000000000000000000000000000000000000000000000000000000000000000000000000000000000000000000000000000000080FF56
:676E3E000000000000040000000000400008000000000000000000000000000000000000000008000000000000002000000000000000000000000000000000000000000000000000000000000000000000000000000000000000000000000000000000000000000000C0FFBA
:676EA500000000000000000000000000000000000000000000000000000000000000000000000000000000000000000000000000000000000000000000000000000000000000000000000020040400000000004011000000000000000000000000000000002000000080FA73
:676F0C000000000000000000000000000000000000000000000000000000000000000000000000000000000000000000000000000000000000000000000000000000000000000000000000008000000000000000000400000000000000000000000000000000000000E8FDB5
:676F7300000000000000000000000000000000000000000000000000000000000000000000000000000000000000000000000000000000000000000000000000000000000000000000000000803008000000000001000000000000000000000000000000008001000068FA1B
:676FDA00000000000000000000000000000000000000000000000000000000000000000000000000000000000000000000000000000000000000000000000000000000000000000000000000000001000000000082000000000000000000000000000000000010020040F883
:6770410000000000000000000000000000000000000000000000000000000000000000000000000000000000000000000000000000000000000000000000000000000000000000000000000004021200000000000A000000000000000000000000000000008005000000F849
:6770A800000000000000000000000000000000000000000000000000000000000000000000000000000000000000000000000000000000000000000000000000000000000000000000000060000C0000000000C083000000000000000000000000000000006040000038F802
:67710F00000000000000000000000000000000000000000000000000000000000000000000000000000000000000000000000000000000000000000000000000000000000000000000000000003000000000000003020000000000000000000000000000008001000048FA21
:6771760000000000000000000000000000000000000000000000000000000000000000000000000000000000000000000000000000000000000000000000000000000000000000000000000001320500000000000B000000000000000000000000000000008041000070FC42
:6771DD000000000000000000000000000000000000000000000000000000000000000000000000000000000000000000000000000000000000000000000000000000000000000000000000A0080000000000004000000000A00800000000000000000000002000000060FD3E
:677244000000000000000000000000000000000000000000000000000000000000000000000000000000000000000000000000000000000000000000000000000000000000000000000000000101000000000000000000000000020000000000000000000000000000D0FA15
:6772AB00000000000000000000000000000000000000000000000000000000000000000000000000000000000000000000000000000000000000000000000000000000000000000000000000000000000000000003000000808000000000000000000000000000000050FA2F
:6773120008000000000000000000000000000000000000000000000000000000000000000000000000000000000000000000000000000000000000000000000000000000000000000000008029000000000000000B0100000001000000000000000000000080090100DAFAF8
:67737900000000000000000000000000000000000000000000000000000000000000000000000000000000000000000000000000000000000000000000000000000000000000000000000000040200000000000020010000804000000000000000000000008041000030F9DC
:6773E00000000000000000000000000000000000000000000000000000000000000000000000000000000000000000000000000000000000000000000000000000000000000000000000006000000000000000C00300000060000000000000000000000000E0010000C0FF23
:677447000400000000000000000000000000000000000000000000000000000000000000000000000000000000000000000000000000000000000000000000000000000000000000000000808100000000000000830000008040000000000000000000000000000000C1FADB
:6774AE000000000000000000000000000000000000000000000000000000000000000000000000000000000000000000000000000000000000000000000000000000000000000000000000000100000000000000100000000011000000000000000000000080850000B8FC9C
:67751500000000000000000000000000000000000000000000000000000000000000000000000000000000000000000000000000000000000000000000000000000000000000000000000020003402000000004001020000200800000000000000000000002000010010FE1F
:67757C000000000000000000000000000000000000000000000000000000000000000000000000000000000000000000000000000000000000000000000000000000000000000000000000004030200000000000000000000000020000000000000000000000010000B0FD68
